{
  "contractName": "Attendance",
  "abi": [
    {
      "inputs": [
        {
          "internalType": "uint256",
          "name": "",
          "type": "uint256"
        }
      ],
      "name": "records",
      "outputs": [
        {
          "internalType": "address",
          "name": "student",
          "type": "address"
        },
        {
          "internalType": "string",
          "name": "subject",
          "type": "string"
        },
        {
          "internalType": "uint256",
          "name": "date",
          "type": "uint256"
        },
        {
          "internalType": "bool",
          "name": "present",
          "type": "bool"
        }
      ],
      "stateMutability": "view",
      "type": "function",
      "constant": true
    },
    {
      "inputs": [
        {
          "internalType": "address",
          "name": "_student",
          "type": "address"
        },
        {
          "internalType": "string",
          "name": "_subject",
          "type": "string"
        },
        {
          "internalType": "bool",
          "name": "_present",
          "type": "bool"
        }
      ],
      "name": "markAttendance",
      "outputs": [],
      "stateMutability": "nonpayable",
      "type": "function"
    },
    {
      "inputs": [],
      "name": "getRecords",
      "outputs": [
        {
          "components": [
            {
              "internalType": "address",
              "name": "student",
              "type": "address"
            },
            {
              "internalType": "string",
              "name": "subject",
              "type": "string"
            },
            {
              "internalType": "uint256",
              "name": "date",
              "type": "uint256"
            },
            {
              "internalType": "bool",
              "name": "present",
              "type": "bool"
            }
          ],
          "internalType": "struct Attendance.Record[]",
          "name": "",
          "type": "tuple[]"
        }
      ],
      "stateMutability": "view",
      "type": "function",
      "constant": true
    }
  ],
  "bytecode": "0x608060405234801561001057600080fd5b50610c92806100206000396000f3fe608060405234801561001057600080fd5b50600436106100415760003560e01c806334461067146100465780638eff3c2914610079578063f3106e9014610097575b600080fd5b610060600480360381019061005b9190610450565b6100b3565b6040516100709493929190610578565b60405180910390f35b6100816101a8565b60405161008e9190610760565b60405180910390f35b6100b160048036038101906100ac919061090f565b610314565b005b600081815481106100c357600080fd5b90600052602060002090600402016000915090508060000160009054906101000a900473ffffffffffffffffffffffffffffffffffffffff169080600101805461010c906109ad565b80601f0160208091040260200160405190810160405280929190818152602001828054610138906109ad565b80156101855780601f1061015a57610100808354040283529160200191610185565b820191906000526020600020905b81548152906001019060200180831161016857829003601f168201915b5050505050908060020154908060030160009054906101000a900460ff16905084565b60606000805480602002602001604051908101604052809291908181526020016000905b8282101561030b57838290600052602060002090600402016040518060800160405290816000820160009054906101000a900473ffffffffffffffffffffffffffffffffffffffff1673ffffffffffffffffffffffffffffffffffffffff1673ffffffffffffffffffffffffffffffffffffffff168152602001600182018054610255906109ad565b80601f0160208091040260200160405190810160405280929190818152602001828054610281906109ad565b80156102ce5780601f106102a3576101008083540402835291602001916102ce565b820191906000526020600020905b8154815290600101906020018083116102b157829003601f168201915b50505050508152602001600282015481526020016003820160009054906101000a900460ff161515151581525050815260200190600101906101cc565b50505050905090565b600060405180608001604052808573ffffffffffffffffffffffffffffffffffffffff168152602001848152602001428152602001831515815250908060018154018082558091505060019003906000526020600020906004020160009091909190915060008201518160000160006101000a81548173ffffffffffffffffffffffffffffffffffffffff021916908373ffffffffffffffffffffffffffffffffffffffff16021790555060208201518160010190816103d49190610b8a565b506040820151816002015560608201518160030160006101000a81548160ff0219169083151502179055505050505050565b6000604051905090565b600080fd5b600080fd5b6000819050919050565b61042d8161041a565b811461043857600080fd5b50565b60008135905061044a81610424565b92915050565b60006020828403121561046657610465610410565b5b60006104748482850161043b565b91505092915050565b600073ffffffffffffffffffffffffffffffffffffffff82169050919050565b60006104a88261047d565b9050919050565b6104b88161049d565b82525050565b600081519050919050565b600082825260208201905092915050565b60005b838110156104f85780820151818401526020810190506104dd565b60008484015250505050565b6000601f19601f8301169050919050565b6000610520826104be565b61052a81856104c9565b935061053a8185602086016104da565b61054381610504565b840191505092915050565b6105578161041a565b82525050565b60008115159050919050565b6105728161055d565b82525050565b600060808201905061058d60008301876104af565b818103602083015261059f8186610515565b90506105ae604083018561054e565b6105bb6060830184610569565b95945050505050565b600081519050919050565b600082825260208201905092915050565b6000819050602082019050919050565b6105f98161049d565b82525050565b600082825260208201905092915050565b600061061b826104be565b61062581856105ff565b93506106358185602086016104da565b61063e81610504565b840191505092915050565b6106528161041a565b82525050565b6106618161055d565b82525050565b600060808301600083015161067f60008601826105f0565b50602083015184820360208601526106978282610610565b91505060408301516106ac6040860182610649565b5060608301516106bf6060860182610658565b508091505092915050565b60006106d68383610667565b905092915050565b6000602082019050919050565b60006106f6826105c4565b61070081856105cf565b935083602082028501610712856105e0565b8060005b8581101561074e578484038952815161072f85826106ca565b945061073a836106de565b925060208a01995050600181019050610716565b50829750879550505050505092915050565b6000602082019050818103600083015261077a81846106eb565b905092915050565b61078b8161049d565b811461079657600080fd5b50565b6000813590506107a881610782565b92915050565b600080fd5b600080fd5b7f4e487b7100000000000000000000000000000000000000000000000000000000600052604160045260246000fd5b6107f082610504565b810181811067ffffffffffffffff8211171561080f5761080e6107b8565b5b80604052505050565b6000610822610406565b905061082e82826107e7565b919050565b600067ffffffffffffffff82111561084e5761084d6107b8565b5b61085782610504565b9050602081019050919050565b82818337600083830152505050565b600061088661088184610833565b610818565b9050828152602081018484840111156108a2576108a16107b3565b5b6108ad848285610864565b509392505050565b600082601f8301126108ca576108c96107ae565b5b81356108da848260208601610873565b91505092915050565b6108ec8161055d565b81146108f757600080fd5b50565b600081359050610909816108e3565b92915050565b60008060006060848603121561092857610927610410565b5b600061093686828701610799565b935050602084013567ffffffffffffffff81111561095757610956610415565b5b610963868287016108b5565b9250506040610974868287016108fa565b9150509250925092565b7f4e487b7100000000000000000000000000000000000000000000000000000000600052602260045260246000fd5b600060028204905060018216806109c557607f821691505b6020821081036109d8576109d761097e565b5b50919050565b60008190508160005260206000209050919050565b60006020601f8301049050919050565b600082821b905092915050565b600060088302610a407fffffffffffffffffffffffffffffffffffffffffffffffffffffffffffffffff82610a03565b610a4a8683610a03565b95508019841693508086168417925050509392505050565b6000819050919050565b6000610a87610a82610a7d8461041a565b610a62565b61041a565b9050919050565b6000819050919050565b610aa183610a6c565b610ab5610aad82610a8e565b848454610a10565b825550505050565b600090565b610aca610abd565b610ad5818484610a98565b505050565b5b81811015610af957610aee600082610ac2565b600181019050610adb565b5050565b601f821115610b3e57610b0f816109de565b610b18846109f3565b81016020851015610b27578190505b610b3b610b33856109f3565b830182610ada565b50505b505050565b600082821c905092915050565b6000610b6160001984600802610b43565b1980831691505092915050565b6000610b7a8383610b50565b9150826002028217905092915050565b610b93826104be565b67ffffffffffffffff811115610bac57610bab6107b8565b5b610bb682546109ad565b610bc1828285610afd565b600060209050601f831160018114610bf45760008415610be2578287015190505b610bec8582610b6e565b865550610c54565b601f198416610c02866109de565b60005b82811015610c2a57848901518255600182019150602085019450602081019050610c05565b86831015610c475784890151610c43601f891682610b50565b8355505b6001600288020188555050505b50505050505056fea26469706673582212204253bdc521d9bb4ad165a1e2660d8a65570f4eb2ac6e5400ed11443061d2d97c64736f6c63430008150033",
  "immutableReferences": {},
  "source": "// SPDX-License-Identifier: MIT\r\npragma solidity ^0.8.0;\r\n\r\ncontract Attendance {\r\n\r\n    struct Record {\r\n        address student;\r\n        string subject;\r\n        uint date;\r\n        bool present;\r\n    }\r\n\r\n    Record[] public records;\r\n\r\n    function markAttendance(address _student, string memory _subject, bool _present) public {\r\n        records.push(Record(_student, _subject, block.timestamp, _present));\r\n    }\r\n\r\n    function getRecords() public view returns (Record[] memory) {\r\n        return records;\r\n    }\r\n}",
  "sourcePath": "C:\\SecureAttend\\blockchain\\contracts\\Attendance.sol",
  "compiler": {
    "name": "solc",
    "version": "0.8.21+commit.d9974bed.Emscripten.clang"
  },
  "schemaVersion": "3.4.16",
  "updatedAt": "2026-04-26T15:18:31.721Z",
  "networkType": "ethereum",
  "devdoc": {
    "kind": "dev",
    "methods": {},
    "version": 1
  },
  "userdoc": {
    "kind": "user",
    "methods": {},
    "version": 1
  }
}