{
  "contractName": "AttendanceSystem",
  "abi": [
    {
      "inputs": [],
      "stateMutability": "nonpayable",
      "type": "constructor"
    },
    {
      "anonymous": false,
      "inputs": [
        {
          "indexed": true,
          "internalType": "address",
          "name": "student",
          "type": "address"
        },
        {
          "indexed": false,
          "internalType": "string",
          "name": "subject",
          "type": "string"
        },
        {
          "indexed": false,
          "internalType": "bool",
          "name": "present",
          "type": "bool"
        },
        {
          "indexed": false,
          "internalType": "address",
          "name": "markedBy",
          "type": "address"
        }
      ],
      "name": "AttendanceMarked",
      "type": "event"
    },
    {
      "anonymous": false,
      "inputs": [
        {
          "indexed": true,
          "internalType": "address",
          "name": "faculty",
          "type": "address"
        }
      ],
      "name": "FacultyAdded",
      "type": "event"
    },
    {
      "anonymous": false,
      "inputs": [
        {
          "indexed": true,
          "internalType": "address",
          "name": "student",
          "type": "address"
        },
        {
          "indexed": false,
          "internalType": "string",
          "name": "name",
          "type": "string"
        }
      ],
      "name": "StudentAdded",
      "type": "event"
    },
    {
      "inputs": [],
      "name": "admin",
      "outputs": [
        {
          "internalType": "address",
          "name": "",
          "type": "address"
        }
      ],
      "stateMutability": "view",
      "type": "function",
      "constant": true
    },
    {
      "inputs": [
        {
          "internalType": "address",
          "name": "",
          "type": "address"
        }
      ],
      "name": "faculties",
      "outputs": [
        {
          "internalType": "address",
          "name": "wallet",
          "type": "address"
        },
        {
          "internalType": "bool",
          "name": "exists",
          "type": "bool"
        }
      ],
      "stateMutability": "view",
      "type": "function",
      "constant": true
    },
    {
      "inputs": [
        {
          "internalType": "address",
          "name": "",
          "type": "address"
        }
      ],
      "name": "students",
      "outputs": [
        {
          "internalType": "string",
          "name": "name",
          "type": "string"
        },
        {
          "internalType": "uint256",
          "name": "sem",
          "type": "uint256"
        },
        {
          "internalType": "address",
          "name": "wallet",
          "type": "address"
        },
        {
          "internalType": "bool",
          "name": "exists",
          "type": "bool"
        }
      ],
      "stateMutability": "view",
      "type": "function",
      "constant": true
    },
    {
      "inputs": [
        {
          "internalType": "string",
          "name": "_name",
          "type": "string"
        },
        {
          "internalType": "uint256",
          "name": "_sem",
          "type": "uint256"
        },
        {
          "internalType": "address",
          "name": "_wallet",
          "type": "address"
        }
      ],
      "name": "addStudent",
      "outputs": [],
      "stateMutability": "nonpayable",
      "type": "function"
    },
    {
      "inputs": [
        {
          "internalType": "address",
          "name": "_wallet",
          "type": "address"
        }
      ],
      "name": "addFaculty",
      "outputs": [],
      "stateMutability": "nonpayable",
      "type": "function"
    },
    {
      "inputs": [
        {
          "internalType": "address",
          "name": "_student",
          "type": "address"
        },
        {
          "internalType": "string",
          "name": "_subject",
          "type": "string"
        },
        {
          "internalType": "bool",
          "name": "_present",
          "type": "bool"
        }
      ],
      "name": "markAttendance",
      "outputs": [],
      "stateMutability": "nonpayable",
      "type": "function"
    },
    {
      "inputs": [],
      "name": "getAttendanceCount",
      "outputs": [
        {
          "internalType": "uint256",
          "name": "",
          "type": "uint256"
        }
      ],
      "stateMutability": "view",
      "type": "function",
      "constant": true
    },
    {
      "inputs": [
        {
          "internalType": "uint256",
          "name": "index",
          "type": "uint256"
        }
      ],
      "name": "getAttendance",
      "outputs": [
        {
          "internalType": "address",
          "name": "student",
          "type": "address"
        },
        {
          "internalType": "string",
          "name": "subject",
          "type": "string"
        },
        {
          "internalType": "bool",
          "name": "present",
          "type": "bool"
        },
        {
          "internalType": "uint256",
          "name": "timestamp",
          "type": "uint256"
        },
        {
          "internalType": "address",
          "name": "markedBy",
          "type": "address"
        }
      ],
      "stateMutability": "view",
      "type": "function",
      "constant": true
    },
    {
      "inputs": [
        {
          "internalType": "address",
          "name": "_student",
          "type": "address"
        }
      ],
      "name": "getStudentAttendance",
      "outputs": [
        {
          "components": [
            {
              "internalType": "address",
              "name": "student",
              "type": "address"
            },
            {
              "internalType": "string",
              "name": "subject",
              "type": "string"
            },
            {
              "internalType": "bool",
              "name": "present",
              "type": "bool"
            },
            {
              "internalType": "uint256",
              "name": "timestamp",
              "type": "uint256"
            },
            {
              "internalType": "address",
              "name": "markedBy",
              "type": "address"
            }
          ],
          "internalType": "struct AttendanceSystem.Attendance[]",
          "name": "",
          "type": "tuple[]"
        }
      ],
      "stateMutability": "view",
      "type": "function",
      "constant": true
    },
    {
      "inputs": [
        {
          "internalType": "address",
          "name": "_wallet",
          "type": "address"
        }
      ],
      "name": "isStudent",
      "outputs": [
        {
          "internalType": "bool",
          "name": "",
          "type": "bool"
        }
      ],
      "stateMutability": "view",
      "type": "function",
      "constant": true
    },
    {
      "inputs": [
        {
          "internalType": "address",
          "name": "_wallet",
          "type": "address"
        }
      ],
      "name": "isFaculty",
      "outputs": [
        {
          "internalType": "bool",
          "name": "",
          "type": "bool"
        }
      ],
      "stateMutability": "view",
      "type": "function",
      "constant": true
    }
  ],
  "bytecode": "0x608060405234801561001057600080fd5b50336000806101000a81548173ffffffffffffffffffffffffffffffffffffffff021916908373ffffffffffffffffffffffffffffffffffffffff160217905550611ed4806100606000396000f3fe608060405234801561001057600080fd5b50600436106100a95760003560e01c8063b4307e3f11610071578063b4307e3f1461017b578063b5fdf252146101af578063c2a78702146101e0578063e9e8a17c14610210578063f3106e901461022c578063f851a44014610248576100a9565b806314e1bf02146100ae578063396ff3ed146100de57806382f7d392146100fa578063a26f80111461012a578063a6c807a914610148575b600080fd5b6100c860048036038101906100c391906111e1565b610266565b6040516100d59190611419565b60405180910390f35b6100f860048036038101906100f391906111e1565b610545565b005b610114600480360381019061010f91906111e1565b610780565b604051610121919061144a565b60405180910390f35b6101326107d9565b60405161013f9190611474565b60405180910390f35b610162600480360381019061015d91906111e1565b6107e6565b60405161017294939291906114e8565b60405180910390f35b61019560048036038101906101909190611560565b6108cb565b6040516101a695949392919061158d565b60405180910390f35b6101c960048036038101906101c491906111e1565b610a94565b6040516101d79291906115e7565b60405180910390f35b6101fa60048036038101906101f591906111e1565b610ae5565b604051610207919061144a565b60405180910390f35b61022a60048036038101906102259190611745565b610b3e565b005b610246600480360381019061024191906117e0565b610db2565b005b6102506110ee565b60405161025d919061184f565b60405180910390f35b60606000600460008473ffffffffffffffffffffffffffffffffffffffff1673ffffffffffffffffffffffffffffffffffffffff1681526020019081526020016000208054806020026020016040519081016040528092919081815260200182805480156102f357602002820191906000526020600020905b8154815260200190600101908083116102df575b505050505090506000815167ffffffffffffffff8111156103175761031661161a565b5b60405190808252806020026020018201604052801561035057816020015b61033d611112565b8152602001906001900390816103355790505b50905060005b825181101561053a5760038382815181106103745761037361186a565b5b60200260200101518154811061038d5761038c61186a565b5b90600052602060002090600502016040518060a00160405290816000820160009054906101000a900473ffffffffffffffffffffffffffffffffffffffff1673ffffffffffffffffffffffffffffffffffffffff1673ffffffffffffffffffffffffffffffffffffffff16815260200160018201805461040c906118c8565b80601f0160208091040260200160405190810160405280929190818152602001828054610438906118c8565b80156104855780601f1061045a57610100808354040283529160200191610485565b820191906000526020600020905b81548152906001019060200180831161046857829003601f168201915b505050505081526020016002820160009054906101000a900460ff16151515158152602001600382015481526020016004820160009054906101000a900473ffffffffffffffffffffffffffffffffffffffff1673ffffffffffffffffffffffffffffffffffffffff1673ffffffffffffffffffffffffffffffffffffffff168152505082828151811061051c5761051b61186a565b5b6020026020010181905250808061053290611928565b915050610356565b508092505050919050565b60008054906101000a900473ffffffffffffffffffffffffffffffffffffffff1673ffffffffffffffffffffffffffffffffffffffff163373ffffffffffffffffffffffffffffffffffffffff16146105d3576040517f08c379a00000000000000000000000000000000000000000000000000000000081526004016105ca906119bc565b60405180910390fd5b600260008273ffffffffffffffffffffffffffffffffffffffff1673ffffffffffffffffffffffffffffffffffffffff16815260200190815260200160002060000160149054906101000a900460ff1615610663576040517f08c379a000000000000000000000000000000000000000000000000000000000815260040161065a90611a28565b60405180910390fd5b60405180604001604052808273ffffffffffffffffffffffffffffffffffffffff16815260200160011515815250600260008373ffffffffffffffffffffffffffffffffffffffff1673ffffffffffffffffffffffffffffffffffffffff16815260200190815260200160002060008201518160000160006101000a81548173ffffffffffffffffffffffffffffffffffffffff021916908373ffffffffffffffffffffffffffffffffffffffff16021790555060208201518160000160146101000a81548160ff0219169083151502179055509050508073ffffffffffffffffffffffffffffffffffffffff167f90980b697876e0a9d99da0ef4bd3aa8227ae9416b87df55b607155fe68b9798360405160405180910390a250565b6000600160008373ffffffffffffffffffffffffffffffffffffffff1673ffffffffffffffffffffffffffffffffffffffff16815260200190815260200160002060020160149054906101000a900460ff169050919050565b6000600380549050905090565b6001602052806000526040600020600091509050806000018054610809906118c8565b80601f0160208091040260200160405190810160405280929190818152602001828054610835906118c8565b80156108825780601f1061085757610100808354040283529160200191610882565b820191906000526020600020905b81548152906001019060200180831161086557829003601f168201915b5050505050908060010154908060020160009054906101000a900473ffffffffffffffffffffffffffffffffffffffff16908060020160149054906101000a900460ff16905084565b60006060600080600080600387815481106108e9576108e861186a565b5b90600052602060002090600502016040518060a00160405290816000820160009054906101000a900473ffffffffffffffffffffffffffffffffffffffff1673ffffffffffffffffffffffffffffffffffffffff1673ffffffffffffffffffffffffffffffffffffffff168152602001600182018054610968906118c8565b80601f0160208091040260200160405190810160405280929190818152602001828054610994906118c8565b80156109e15780601f106109b6576101008083540402835291602001916109e1565b820191906000526020600020905b8154815290600101906020018083116109c457829003601f168201915b505050505081526020016002820160009054906101000a900460ff16151515158152602001600382015481526020016004820160009054906101000a900473ffffffffffffffffffffffffffffffffffffffff1673ffffffffffffffffffffffffffffffffffffffff1673ffffffffffffffffffffffffffffffffffffffff1681525050905080600001518160200151826040015183606001518460800151955095509550955095505091939590929450565b60026020528060005260406000206000915090508060000160009054906101000a900473ffffffffffffffffffffffffffffffffffffffff16908060000160149054906101000a900460ff16905082565b6000600260008373ffffffffffffffffffffffffffffffffffffffff1673ffffffffffffffffffffffffffffffffffffffff16815260200190815260200160002060000160149054906101000a900460ff169050919050565b60008054906101000a900473ffffffffffffffffffffffffffffffffffffffff1673ffffffffffffffffffffffffffffffffffffffff163373ffffffffffffffffffffffffffffffffffffffff1614610bcc576040517f08c379a0000000000000000000000000000000000000000000000000000000008152600401610bc3906119bc565b60405180910390fd5b600160008273ffffffffffffffffffffffffffffffffffffffff1673ffffffffffffffffffffffffffffffffffffffff16815260200190815260200160002060020160149054906101000a900460ff1615610c5c576040517f08c379a0000000000000000000000000000000000000000000000000000000008152600401610c5390611a94565b60405180910390fd5b60405180608001604052808481526020018381526020018273ffffffffffffffffffffffffffffffffffffffff16815260200160011515815250600160008373ffffffffffffffffffffffffffffffffffffffff1673ffffffffffffffffffffffffffffffffffffffff1681526020019081526020016000206000820151816000019081610cea9190611c60565b506020820151816001015560408201518160020160006101000a81548173ffffffffffffffffffffffffffffffffffffffff021916908373ffffffffffffffffffffffffffffffffffffffff16021790555060608201518160020160146101000a81548160ff0219169083151502179055509050508073ffffffffffffffffffffffffffffffffffffffff167f546ed786c8923815c5efd04ecbc2b720211ff8b4998a8971c38897c3e75d199684604051610da59190611d32565b60405180910390a2505050565b600260003373ffffffffffffffffffffffffffffffffffffffff1673ffffffffffffffffffffffffffffffffffffffff16815260200190815260200160002060000160149054906101000a900460ff16610e41576040517f08c379a0000000000000000000000000000000000000000000000000000000008152600401610e3890611da0565b60405180910390fd5b600160008473ffffffffffffffffffffffffffffffffffffffff1673ffffffffffffffffffffffffffffffffffffffff16815260200190815260200160002060020160149054906101000a900460ff16610ed0576040517f08c379a0000000000000000000000000000000000000000000000000000000008152600401610ec790611e0c565b60405180910390fd5b60036040518060a001604052808573ffffffffffffffffffffffffffffffffffffffff16815260200184815260200183151581526020014281526020013373ffffffffffffffffffffffffffffffffffffffff16815250908060018154018082558091505060019003906000526020600020906005020160009091909190915060008201518160000160006101000a81548173ffffffffffffffffffffffffffffffffffffffff021916908373ffffffffffffffffffffffffffffffffffffffff1602179055506020820151816001019081610fac9190611c60565b5060408201518160020160006101000a81548160ff0219169083151502179055506060820151816003015560808201518160040160006101000a81548173ffffffffffffffffffffffffffffffffffffffff021916908373ffffffffffffffffffffffffffffffffffffffff1602179055505050600460008473ffffffffffffffffffffffffffffffffffffffff1673ffffffffffffffffffffffffffffffffffffffff16815260200190815260200160002060016003805490506110719190611e2c565b90806001815401808255809150506001900390600052602060002001600090919091909150558273ffffffffffffffffffffffffffffffffffffffff167f5de98d9365cb8b71d4af10d7b28b24380c261c98197f83661042e4408bef341e8383336040516110e193929190611e60565b60405180910390a2505050565b60008054906101000a900473ffffffffffffffffffffffffffffffffffffffff1681565b6040518060a00160405280600073ffffffffffffffffffffffffffffffffffffffff1681526020016060815260200160001515815260200160008152602001600073ffffffffffffffffffffffffffffffffffffffff1681525090565b6000604051905090565b600080fd5b600080fd5b600073ffffffffffffffffffffffffffffffffffffffff82169050919050565b60006111ae82611183565b9050919050565b6111be816111a3565b81146111c957600080fd5b50565b6000813590506111db816111b5565b92915050565b6000602082840312156111f7576111f6611179565b5b6000611205848285016111cc565b91505092915050565b600081519050919050565b600082825260208201905092915050565b6000819050602082019050919050565b611243816111a3565b82525050565b600081519050919050565b600082825260208201905092915050565b60005b83811015611283578082015181840152602081019050611268565b60008484015250505050565b6000601f19601f8301169050919050565b60006112ab82611249565b6112b58185611254565b93506112c5818560208601611265565b6112ce8161128f565b840191505092915050565b60008115159050919050565b6112ee816112d9565b82525050565b6000819050919050565b611307816112f4565b82525050565b600060a083016000830151611325600086018261123a565b506020830151848203602086015261133d82826112a0565b915050604083015161135260408601826112e5565b50606083015161136560608601826112fe565b506080830151611378608086018261123a565b508091505092915050565b600061138f838361130d565b905092915050565b6000602082019050919050565b60006113af8261120e565b6113b98185611219565b9350836020820285016113cb8561122a565b8060005b8581101561140757848403895281516113e88582611383565b94506113f383611397565b925060208a019950506001810190506113cf565b50829750879550505050505092915050565b6000602082019050818103600083015261143381846113a4565b905092915050565b611444816112d9565b82525050565b600060208201905061145f600083018461143b565b92915050565b61146e816112f4565b82525050565b60006020820190506114896000830184611465565b92915050565b600082825260208201905092915050565b60006114ab82611249565b6114b5818561148f565b93506114c5818560208601611265565b6114ce8161128f565b840191505092915050565b6114e2816111a3565b82525050565b6000608082019050818103600083015261150281876114a0565b90506115116020830186611465565b61151e60408301856114d9565b61152b606083018461143b565b95945050505050565b61153d816112f4565b811461154857600080fd5b50565b60008135905061155a81611534565b92915050565b60006020828403121561157657611575611179565b5b60006115848482850161154b565b91505092915050565b600060a0820190506115a260008301886114d9565b81810360208301526115b481876114a0565b90506115c3604083018661143b565b6115d06060830185611465565b6115dd60808301846114d9565b9695505050505050565b60006040820190506115fc60008301856114d9565b611609602083018461143b565b9392505050565b600080fd5b600080fd5b7f4e487b7100000000000000000000000000000000000000000000000000000000600052604160045260246000fd5b6116528261128f565b810181811067ffffffffffffffff821117156116715761167061161a565b5b80604052505050565b600061168461116f565b90506116908282611649565b919050565b600067ffffffffffffffff8211156116b0576116af61161a565b5b6116b98261128f565b9050602081019050919050565b82818337600083830152505050565b60006116e86116e384611695565b61167a565b90508281526020810184848401111561170457611703611615565b5b61170f8482856116c6565b509392505050565b600082601f83011261172c5761172b611610565b5b813561173c8482602086016116d5565b91505092915050565b60008060006060848603121561175e5761175d611179565b5b600084013567ffffffffffffffff81111561177c5761177b61117e565b5b61178886828701611717565b93505060206117998682870161154b565b92505060406117aa868287016111cc565b9150509250925092565b6117bd816112d9565b81146117c857600080fd5b50565b6000813590506117da816117b4565b92915050565b6000806000606084860312156117f9576117f8611179565b5b6000611807868287016111cc565b935050602084013567ffffffffffffffff8111156118285761182761117e565b5b61183486828701611717565b9250506040611845868287016117cb565b9150509250925092565b600060208201905061186460008301846114d9565b92915050565b7f4e487b7100000000000000000000000000000000000000000000000000000000600052603260045260246000fd5b7f4e487b7100000000000000000000000000000000000000000000000000000000600052602260045260246000fd5b600060028204905060018216806118e057607f821691505b6020821081036118f3576118f2611899565b5b50919050565b7f4e487b7100000000000000000000000000000000000000000000000000000000600052601160045260246000fd5b6000611933826112f4565b91507fffffffffffffffffffffffffffffffffffffffffffffffffffffffffffffffff8203611965576119646118f9565b5b600182019050919050565b7f4f6e6c792061646d696e20616c6c6f7765640000000000000000000000000000600082015250565b60006119a660128361148f565b91506119b182611970565b602082019050919050565b600060208201905081810360008301526119d581611999565b9050919050565b7f466163756c747920616c72656164792065786973747300000000000000000000600082015250565b6000611a1260168361148f565b9150611a1d826119dc565b602082019050919050565b60006020820190508181036000830152611a4181611a05565b9050919050565b7f53747564656e7420616c72656164792065786973747300000000000000000000600082015250565b6000611a7e60168361148f565b9150611a8982611a48565b602082019050919050565b60006020820190508181036000830152611aad81611a71565b9050919050565b60008190508160005260206000209050919050565b60006020601f8301049050919050565b600082821b905092915050565b600060088302611b167fffffffffffffffffffffffffffffffffffffffffffffffffffffffffffffffff82611ad9565b611b208683611ad9565b95508019841693508086168417925050509392505050565b6000819050919050565b6000611b5d611b58611b53846112f4565b611b38565b6112f4565b9050919050565b6000819050919050565b611b7783611b42565b611b8b611b8382611b64565b848454611ae6565b825550505050565b600090565b611ba0611b93565b611bab818484611b6e565b505050565b5b81811015611bcf57611bc4600082611b98565b600181019050611bb1565b5050565b601f821115611c1457611be581611ab4565b611bee84611ac9565b81016020851015611bfd578190505b611c11611c0985611ac9565b830182611bb0565b50505b505050565b600082821c905092915050565b6000611c3760001984600802611c19565b1980831691505092915050565b6000611c508383611c26565b9150826002028217905092915050565b611c6982611249565b67ffffffffffffffff811115611c8257611c8161161a565b5b611c8c82546118c8565b611c97828285611bd3565b600060209050601f831160018114611cca5760008415611cb8578287015190505b611cc28582611c44565b865550611d2a565b601f198416611cd886611ab4565b60005b82811015611d0057848901518255600182019150602085019450602081019050611cdb565b86831015611d1d5784890151611d19601f891682611c26565b8355505b6001600288020188555050505b505050505050565b60006020820190508181036000830152611d4c81846114a0565b905092915050565b7f4f6e6c7920666163756c747920616c6c6f776564000000000000000000000000600082015250565b6000611d8a60148361148f565b9150611d9582611d54565b602082019050919050565b60006020820190508181036000830152611db981611d7d565b9050919050565b7f53747564656e74206e6f7420666f756e64000000000000000000000000000000600082015250565b6000611df660118361148f565b9150611e0182611dc0565b602082019050919050565b60006020820190508181036000830152611e2581611de9565b9050919050565b6000611e37826112f4565b9150611e42836112f4565b9250828203905081811115611e5a57611e596118f9565b5b92915050565b60006060820190508181036000830152611e7a81866114a0565b9050611e89602083018561143b565b611e9660408301846114d9565b94935050505056fea2646970667358221220a6edfc999f442b4e388afb38c6abcbb11728f662a809cf2fd1540c74827c204f64736f6c63430008150033",
  "immutableReferences": {},
  "source": "// SPDX-License-Identifier: MIT\r\npragma solidity ^0.8.21;\r\n\r\ncontract AttendanceSystem {\r\n\r\n    address public admin;\r\n\r\n    constructor() {\r\n        admin = msg.sender;\r\n    }\r\n\r\n    // ================= STRUCTS =================\r\n    struct Student {\r\n        string name;\r\n        uint sem;\r\n        address wallet;\r\n        bool exists;\r\n    }\r\n\r\n    struct Faculty {\r\n        address wallet;\r\n        bool exists;\r\n    }\r\n\r\n    struct Attendance {\r\n        address student;\r\n        string subject;\r\n        bool present;\r\n        uint timestamp;\r\n        address markedBy;\r\n    }\r\n\r\n    // ================= MAPPINGS =================\r\n    mapping(address => Student) public students;\r\n    mapping(address => Faculty) public faculties;\r\n\r\n    Attendance[] private attendanceRecords;\r\n\r\n    // for fast lookup (IMPORTANT FIX)\r\n    mapping(address => uint[]) private studentAttendanceIndex;\r\n\r\n    // ================= EVENTS =================\r\n    event StudentAdded(address indexed student, string name);\r\n    event FacultyAdded(address indexed faculty);\r\n    event AttendanceMarked(\r\n        address indexed student,\r\n        string subject,\r\n        bool present,\r\n        address markedBy\r\n    );\r\n\r\n    // ================= MODIFIERS =================\r\n    modifier onlyAdmin() {\r\n        require(msg.sender == admin, \"Only admin allowed\");\r\n        _;\r\n    }\r\n\r\n    modifier onlyFaculty() {\r\n        require(faculties[msg.sender].exists, \"Only faculty allowed\");\r\n        _;\r\n    }\r\n\r\n    // ================= ADMIN =================\r\n\r\n    function addStudent(\r\n        string memory _name,\r\n        uint _sem,\r\n        address _wallet\r\n    ) public onlyAdmin {\r\n\r\n        require(!students[_wallet].exists, \"Student already exists\");\r\n\r\n        students[_wallet] = Student(_name, _sem, _wallet, true);\r\n\r\n        emit StudentAdded(_wallet, _name);\r\n    }\r\n\r\n    function addFaculty(address _wallet) public onlyAdmin {\r\n        require(!faculties[_wallet].exists, \"Faculty already exists\");\r\n\r\n        faculties[_wallet] = Faculty(_wallet, true);\r\n\r\n        emit FacultyAdded(_wallet);\r\n    }\r\n\r\n    // ================= ATTENDANCE =================\r\n\r\n    function markAttendance(\r\n        address _student,\r\n        string memory _subject,\r\n        bool _present\r\n    ) public onlyFaculty {\r\n\r\n        require(students[_student].exists, \"Student not found\");\r\n\r\n        attendanceRecords.push(\r\n            Attendance(\r\n                _student,\r\n                _subject,\r\n                _present,\r\n                block.timestamp,\r\n                msg.sender\r\n            )\r\n        );\r\n\r\n        // store index for fast student lookup\r\n        studentAttendanceIndex[_student].push(attendanceRecords.length - 1);\r\n\r\n        emit AttendanceMarked(_student, _subject, _present, msg.sender);\r\n    }\r\n\r\n    // ================= VIEW ALL =================\r\n\r\n    function getAttendanceCount() public view returns (uint) {\r\n        return attendanceRecords.length;\r\n    }\r\n\r\n    function getAttendance(uint index) public view returns (\r\n        address student,\r\n        string memory subject,\r\n        bool present,\r\n        uint timestamp,\r\n        address markedBy\r\n    ) {\r\n        Attendance memory a = attendanceRecords[index];\r\n        return (a.student, a.subject, a.present, a.timestamp, a.markedBy);\r\n    }\r\n\r\n    // ================= NEW (IMPORTANT FIX) =================\r\n\r\n    // Get attendance of ONE student (VERY IMPORTANT for frontend)\r\n    function getStudentAttendance(address _student)\r\n        public\r\n        view\r\n        returns (Attendance[] memory)\r\n    {\r\n        uint[] memory indexes = studentAttendanceIndex[_student];\r\n\r\n        Attendance[] memory result = new Attendance[](indexes.length);\r\n\r\n        for (uint i = 0; i < indexes.length; i++) {\r\n            result[i] = attendanceRecords[indexes[i]];\r\n        }\r\n\r\n        return result;\r\n    }\r\n\r\n    // Check student exists\r\n    function isStudent(address _wallet) public view returns (bool) {\r\n        return students[_wallet].exists;\r\n    }\r\n\r\n    // Check faculty exists\r\n    function isFaculty(address _wallet) public view returns (bool) {\r\n        return faculties[_wallet].exists;\r\n    }\r\n}",
  "sourcePath": "C:\\SecureAttend\\blockchain\\contracts\\AttendanceSystem.sol",
  "compiler": {
    "name": "solc",
    "version": "0.8.21+commit.d9974bed.Emscripten.clang"
  },
  "schemaVersion": "3.4.16",
  "updatedAt": "2026-04-26T17:59:44.544Z",
  "networkType": "ethereum",
  "devdoc": {
    "kind": "dev",
    "methods": {},
    "version": 1
  },
  "userdoc": {
    "kind": "user",
    "methods": {},
    "version": 1
  }
}